:100000000080002035180000ED4E0000ED4E00008D
:10001000ED4E0000ED4E0000ED4E0000ED4E0000F4
:10002000ED4E0000ED4E0000ED4E0000ED4E0000E4
:10003000ED4E0000ED4E0000ED4E0000ED4E0000D4
:10004000ED4E0000ED4E0000ED4E0000ED4E0000C4
:10005000ED4E0000ED4E0000ED4E0000ED4E0000B4
:10006000ED4E0000ED4E0000ED4E0000ED4E0000A4
:10007000ED4E0000ED4E0000ED4E0000ED4E000094
:10008000ED4E0000ED4E0000ED4E0000ED4E000084
:10009000ED4E0000ED4E0000ED4E0000ED4E000074
:1000A000ED4E0000ED4E0000ED4E0000ED4E000064
:1000B000ED4E0000ED4E0000ED4E0000ED4E000054
:1000C00080B51448144B21E05C689968DD688C4267
:1000D0000CD0002205E0A6180832D6E9008941E9D3
:1000E00002898C460831AA42F5D101E004EB050CE7
:1000F0001C696146002204E008320026002741E91D
:1001000002670831A242F7D1143301380028DBD14D
:1001100004F0D4FE01000000B050000048F22813A3
:10012000C1F6FF731A780AB901201870704700BF32
:1001300048F20010C1F6FF7008B503682BB140F219
:100140000003C0F2000303B1984708BD80B500AFBB
:1001500048F22D13C1F6FF731B78002B46D148F2ED
:100160002E13C1F6FF734FF000021A702FE048F211
:100170002E13C1F6FF731B781A4648F2F823C1F616
:10018000FF739B5C194648F22E13C1F6FF731B7870
:100190001A4648F2D413C1F6FF739B5C1A4648F224
:1001A000F013C1F6FF734FEAC1010A444FF000019A
:1001B00043F8221048F22E13C1F6FF731B7803F1A7
:1001C0000103DAB248F22E13C1F6FF731A7048F237
:1001D0002E13C1F6FF731B78032BC8D948F22D13D9
:1001E000C1F6FF734FF001021A7049E048F22E1376
:1001F000C1F6FF734FF000021A7033E048F22E137D
:10020000C1F6FF731B781A4648F2F823C1F6FF7354
:100210009B5C184648F22E13C1F6FF731B781A46F2
:1002200048F2D413C1F6FF739B5C1A4648F22C13B4
:10023000C1F6FF731B78194648F2F013C1F6FF733D
:100240004FEAC000024443F8221048F22E13C1F6D0
:10025000FF731B7803F10103DAB248F22E13C1F6E3
:10026000FF731A7048F22E13C1F6FF731B78032B2D
:10027000C4D948F22D13C1F6FF734FF000021A7073
:1002800048F22B13C1F6FF731B7803F10103DAB2B6
:1002900048F22B13C1F6FF731A7001F0EBFE80BD1C
:1002A00080B500AF48F21113C1F6FF731B785BB243
:1002B000002B6ADD48F21113C1F6FF731B785BB2A5
:1002C00003F1FF3148F2F023C1F6FF731B781A46A1
:1002D00048F2F013C1F6FF734FEAC1010A4453F824
:1002E0002230002B51D148F21113C1F6FF731B7855
:1002F0005BB203F1FF3048F2F023C1F6FF731B78C5
:100300001A4648F21113C1F6FF731B784FFA83FCAB
:1003100048F2F023C1F6FF731B78194648F2F01338
:10032000C1F6FF734FEACC0C614453F8211048F238
:10033000F013C1F6FF734FEAC000024443F82210E5
:1003400048F21113C1F6FF731B7859B248F2F0233B
:10035000C1F6FF731B781A4648F2F013C1F6FF731B
:100360004FEAC1010A444FF0000143F8221048F25D
:100370001113C1F6FF731B7803F1FF33DAB248F2B1
:100380001113C1F6FF731A7006E048F22A13C1F682
:10039000FF734FF001021A7001F08CFD80BD00BFA9
:1003A00080B483B000AF4FF00003BB711BE04FF08F
:1003B0000003FB7110E0B979FA7948F2F013C1F645
:1003C000FF734FEAC1010A444FF0000143F82210C5
:1003D000FB7903F10103FB71FB79072BEBD9BB79A7
:1003E00003F10103BB71BB79072BE0D94FF0000388
:1003F000BB7113E0BA7948F2D413C1F6FF734FF022
:1004000000019954BA7948F2F823C1F6FF734FF00E
:1004100000019954BB7903F10103BB71BB79032B34
:10042000E8D907F10C07BD4680BC704780B582B0A3
:1004300000AF4FF00703FB7126E048F20C13C1F642
:10044000FF73196897F9072048F2F013C1F6FF739C
:100450004FEAC1010A4453F82230022B04D14FF075
:10046000000001F09FFB03E04FF0010001F09AFB58
:100470004FF0010001F0B8FB4FF0000001F0B4FBB9
:10048000FB7903F1FF33FB7197F90730002BD4DAC6
:1004900007F10807BD4680BD80B582B000AF4FF0C0
:1004A0000703FB7126E048F20C13C1F6FF731968CD
:1004B00097F9072048F2F013C1F6FF734FEAC10124
:1004C0000A4453F82230012B04D14FF0000001F010
:1004D0009BFB03E04FF0010001F096FB4FF00100A1
:1004E00001F0B2FB4FF0000001F0AEFBFB7903F12D
:1004F000FF33FB7197F90730002BD4DA07F10807B7
:10050000BD4680BD80B500AF4FF0020001F06CFB2E
:100510004FF0000001F068FB4FF0020001F094FB87
:100520004FF0000001F090FB80BD00BF80B485B0AB
:1005300000AFF860B9607A60BB6803F1FF317B6897
:1005400003F1FF3248F2F013C1F6FF734FEAC10125
:100550000A4453F82230002B0FD1BB6803F1FF305F
:100560007B6803F1FF32F96848F2F013C1F6FF73BC
:100570004FEAC000024443F8221007F11407BD46B9
:1005800080BC704780B500AF48F20C13C1F6FF7312
:100590001B68082B0AD14FF0010001F0FDF948F269
:1005A0000C13C1F6FF734FF000021A6080BD00BF4C
:1005B00080B500AFFFF7E6FFFFF738FFFFF76CFFEE
:1005C0004FF0010001F096F948F20813C1F6FF73ED
:1005D0001B684FEA5303184601F018FAFFF792FF21
:1005E0004FF0020001F086F948F20813C1F6FF73DC
:1005F0001B684FEA5303184601F008FA01F0ECF9C2
:100600000346012B03D14FF0000001F0C5F948F279
:100610000C13C1F6FF731B6803F1010248F20C13BF
:10062000C1F6FF731A6080BD80B584B000AF134679
:100630000246FA710A46BA717B7148F2F223C1F69A
:10064000FF734FF000021A7048F2E013C1F6FF7317
:100650004FF07E021A7048F2E013C1F6FF734FF0BC
:1006600000025A7048F2E013C1F6FF734FF009021E
:100670009A7048F2E013C1F6FF734FF00102DA708E
:1006800048F2E013C1F6FF734FF000021A7148F20E
:10069000E013C1F6FF734FF0FF325A7148F2E013D6
:1006A000C1F6FF734FF0FF329A7148F2E013C1F6C2
:1006B000FF734FF00102DA7148F2E013C1F6FF73E5
:1006C000FA791A7248F2E013C1F6FF734FF0000294
:1006D0005A7248F2E013C1F6FF73BA799A7248F27F
:1006E000E013C1F6FF737A79DA724FF00303FB73FC
:1006F00017E0FA7B48F2E013C1F6FF739A5C48F208
:10070000F223C1F6FF731B781344DAB248F2F223E6
:10071000C1F6FF731A70FFF74BFFFB7B03F1010378
:10072000FB73FB7B0B2BE4D948F2F223C1F6FF737A
:100730001B786FEA0303DAB248F2E013C1F6FF73E5
:100740001A7307F11007BD4680BD00BF90B583B096
:1007500000AF4FF00103FB7148F2F223C1F6FF73C3
:100760004FF000021A7031E003F0C8F90346BB7184
:10077000BB797E2B28D148F2C413C1F6FF73BA7936
:100780001A704FF001037B7118E0FFF711FF00E0D2
:1007900000BF03F01DFA0346002BF6D07C7903F06E
:1007A000ADF903461A4648F2C413C1F6FF731A5551
:1007B000FFF7FEFE7B7903F101037B717B790C2B44
:1007C000E6D94FF00003FB71FFF7F2FE03F000FAE9
:1007D0000346002B02D0FB79012BC5D04FF0030359
:1007E0007B7117E07A7948F2C413C1F6FF739A5C03
:1007F00048F2F223C1F6FF731B781344DAB248F2D1
:10080000F223C1F6FF731A70FFF7D2FE7B7903F172
:1008100001037B717B790B2BE4D948F2C413C1F639
:10082000FF731B7B1A4648F2F223C1F6FF731B7855
:10083000C3F1FF039A4230D148F2C413C1F6FF73EB
:10084000DB7A082B29D848F2C413C1F6FF73DB7A90
:10085000002B22D048F2C413C1F6FF739B7A072BFA
:100860001BD848F2C413C1F6FF739B7A002B14D037
:1008700048F2C413C1F6FF731A7A48F20413C1F6A2
:10088000FF731B789A4208D148F22F13C1F6FF7309
:100890004FF001021A70FFF78BFE07F10C07BD46FF
:1008A00090BD00BF80B584B000AF0346FB714FF030
:1008B0000003FB730EE0FA7B48F2F013C1F6FF73FE
:1008C00002F138024FF0000143F82210FB7B03F1E4
:1008D0000103FB73FB7B072BEDD9FB794FF0010084
:1008E0004FF008011A46FFF721FE07F11007BD4639
:1008F00080BD00BF0000000090B583B000AF7860FD
:100900007B68002B29DD786804F0B8F802460B46B6
:100910004FF000010C4610461946FDA3D3E9002311
:1009200004F072F90346002B02D04FF001031C467D
:10093000E3B2002B11D048F21013C1F6FF731B78FD
:10094000012B0AD04FF00100FFF7ACFF48F2101363
:10095000C1F6FF734FF001021A70786804F08EF848
:1009600002460B464FF000010C4610461946E8A31C
:10097000D3E9002304F05CF90346002B02D04FF0CA
:1009800001031C46E3B2002B29D0786804F076F806
:1009900002460B464FF000010C4610461946DEA3F6
:1009A000D3E9002304F030F90346002B02D04FF0C6
:1009B00001031C46E3B2002B11D048F21013C1F61C
:1009C000FF731B78022B0AD04FF00200FFF76AFF7B
:1009D00048F21013C1F6FF734FF002021A707868E4
:1009E00004F04CF802460B464FF000010C4610464E
:1009F0001946C9A3D3E9002304F01AF90346002BD2
:100A000002D04FF001031C46E3B2002B2CD07868D3
:100A100004F034F802460B464FF000010C46104635
:100A200019464FF000024FF0804303F5860304F0AF
:100A3000EBF80346002B02D04FF001031C46E3B253
:100A4000002B11D048F21013C1F6FF731B78032B53
:100A50000AD04FF00300FFF725FF48F21013C1F64C
:100A6000FF734FF003021A70786804F007F802462B
:100A70000B464FF000010C46104619464FF000029D
:100A80004FF0804303F5860304F0D2F80346002BB1
:100A900002D04FF001031C46E3B2002B29D0786846
:100AA00003F0ECFF02460B464FF000010C461046E7
:100AB00019469BA3D3E9002304F0A6F80346002BB4
:100AC00002D04FF001031C46E3B2002B11D048F2D4
:100AD0001013C1F6FF731B78042B0AD04FF00400EB
:100AE000FFF7E0FE48F21013C1F6FF734FF0040267
:100AF0001A70786803F0C2FF02460B464FF00001FF
:100B00000C461046194686A3D3E9002304F090F85A
:100B10000346002B02D04FF001031C46E3B2002B2A
:100B200029D0786803F0AAFF02460B464FF0000177
:100B30000C46104619467CA3D3E9002304F064F860
:100B40000346002B02D04FF001031C46E3B2002BFA
:100B500011D048F21013C1F6FF731B78052B0AD091
:100B60004FF00500FFF79EFE48F21013C1F6FF7329
:100B70004FF005021A70786803F080FF02460B46BA
:100B80004FF000010C461046194667A3D3E9002335
:100B900004F04EF80346002B02D04FF001031C4630
:100BA000E3B2002B29D0786803F068FF02460B46B9
:100BB0004FF000010C46104619465DA3D3E900230F
:100BC00004F022F80346002B02D04FF001031C462C
:100BD000E3B2002B11D048F21013C1F6FF731B785B
:100BE000062B0AD04FF00600FFF75CFE48F2101308
:100BF000C1F6FF734FF006021A70786803F03EFFEB
:100C000002460B464FF000010C461046194648A319
:100C1000D3E9002304F00CF80346002B02D04FF078
:100C200001031C46E3B2002B29D0786803F026FFAD
:100C300002460B464FF000010C46104619463EA3F3
:100C4000D3E9002303F0E0FF0346002B02D04FF06E
:100C500001031C46E3B2002B11D048F21013C1F679
:100C6000FF731B78072B0AD04FF00700FFF71AFE1F
:100C700048F21013C1F6FF734FF007021A7078683C
:100C800003F0FCFE02460B464FF000010C461046F6
:100C9000194629A3D3E9002303F0CAFF0346002B1A
:100CA00002D04FF001031C46E3B2002B29D0786834
:100CB00003F0E4FE02460B464FF000010C461046DE
:100CC00019461FA3D3E9002303F09EFF0346002B20
:100CD00002D04FF001031C46E3B2002B11D048F2C2
:100CE0001013C1F6FF731B78082B0AD04FF00800D1
:100CF000FFF7D8FD48F21013C1F6FF734FF008025A
:100D00001A7007F10C07BD4690BD00BFAFF300801D
:100D1000CDCCCCCCCCCC28403333333333333940F7
:100D20006666666666664940CDCCCCCCCCCC4F407E
:100D30009A99999999195340CDCCCCCCCC4C56402A
:100D4000000000000080594080B485B000AF134619
:100D50000246FA710A46BA717B714FF000037B724A
:100D60007B7A3B733B7BFB724FF00103FB734FF0CD
:100D70000003BB723CE097F90610BA7A48F2F01310
:100D8000C1F6FF734FEAC1010A4453F8222097F9D4
:100D900007309A4216D17A7A48F2D413C1F6FF731B
:100DA000B97A99547A7AB97948F2F823C1F6FF737F
:100DB00099547B7A03F101037B723B7B03F10103BE
:100DC0003B7305E04FF000033B734FF000037B7271
:100DD0003B7B032B08D9FA7948F22C13C1F6FF7339
:100DE0001A704FF00103C1E1BB7A03F10103BB723A
:100DF000BB7A072BBFD94FF000037B724FF0000383
:100E0000BB723CE0B97A97F9052048F2F013C1F6BD
:100E1000FF734FEAC1010A4453F8222097F90730C3
:100E20009A4216D17A7A797948F2D413C1F6FF73CF
:100E300099547A7A48F2F823C1F6FF73B97A995433
:100E40007B7A03F101037B72FB7A03F10103FB72EE
:100E500005E04FF000037B724FF00003FB72FB7A5A
:100E6000032B08D9FA7948F22C13C1F6FF731A70D4
:100E70004FF001037AE1BB7A03F10103BB72BB7A45
:100E8000062BBFD94FF000037B724FF00103BB73F9
:100E90004FF001037B737A7A797948F2D413C1F663
:100EA000FF7399547A7AB97948F2F823C1F6FF733F
:100EB00099547B7A03F101037B7238E097F906209D
:100EC0007B7BC3EB020197F905207B7BC3EB02021E
:100ED00048F2F013C1F6FF734FEAC1010A4453F818
:100EE000222097F907309A4230D17A7A79797B7B40
:100EF000C3EB0103D9B248F2D413C1F6FF7399547E
:100F00007A7AB9797B7BC3EB0103D9B248F2F82333
:100F1000C1F6FF7399547B7A03F101037B72BB7BAB
:100F200003F10103BB737B7B03F101037B7397F92F
:100F300006207B7BC3EB0203002B08DB97F905201F
:100F40007B7BC3EB0203002BB8DA00E000BF4FF05D
:100F500001037B7335E097F906207B7B02EB0301ED
:100F600097F905207B7B1A4448F2F013C1F6FF7312
:100F70004FEAC1010A4453F8222097F907309A42F8
:100F80002CD17A7A79797B7B0B44D9B248F2D4138D
:100F9000C1F6FF7399547A7AB9797B7B0B44D9B245
:100FA00048F2F823C1F6FF7399547B7A03F10103E9
:100FB0007B72BB7B03F10103BB737B7B03F10103FA
:100FC0007B7397F906207B7B1344062B07DC97F98C
:100FD00005207B7B1344072BBDDD00E000BFBB7BFE
:100FE000032B08D9FA7948F22C13C1F6FF731A7053
:100FF0004FF00103BAE04FF000037B727A7A7979FF
:1010000048F2D413C1F6FF7399547A7AB97948F249
:10101000F823C1F6FF7399547B7A03F101037B72C5
:101020004FF00103FB734FF001037B7337E097F937
:1010300006207B7B02EB030197F905207B7BC3EB4A
:10104000020248F2F013C1F6FF734FEAC1010A44ED
:1010500053F8222097F907309A422ED17A7A79797B
:101060007B7BC3EB0103D9B248F2D413C1F6FF7303
:1010700099547A7AB9797B7B0B44D9B248F2F82338
:10108000C1F6FF7399547B7A03F101037B72FB7BFA
:1010900003F10103FB737B7B03F101037B7397F97E
:1010A00006207B7B1344062B08DC97F905207B7B0D
:1010B000C3EB0203002BBADA00E000BF4FF00103DC
:1010C0007B7336E097F906207B7BC3EB020197F92F
:1010D00005207B7B1A4448F2F013C1F6FF734FEAF8
:1010E000C1010A4453F8222097F907309A422ED1C1
:1010F0007A7A79797B7B0B44D9B248F2D413C1F662
:10110000FF7399547A7AB9797B7BC3EB0103D9B227
:1011100048F2F823C1F6FF7399547B7A03F1010377
:101120007B72FB7B03F10103FB737B7B03F1010308
:101130007B7397F906207B7BC3EB0203002B07DB55
:1011400097F905207B7B1344072BBBDD00E000BF34
:10115000FB7B032B08D9FA7948F22C13C1F6FF73F5
:101160001A704FF0010301E04FF00003184607F139
:101170001407BD4680BC704780B500AF4FF0020039
:101180004FF005014FF00202FFF7D0F94FF00200D7
:101190004FF005014FF00302FFF7C8F94FF00200CE
:1011A0004FF005014FF00602FFF7C0F94FF00200C3
:1011B0004FF005014FF00702FFF7B8F94FF00200BA
:1011C0004FF006014FF00202FFF7B0F94FF00200B6
:1011D0004FF006014FF00302FFF7A8F94FF00200AD
:1011E0004FF006014FF00602FFF7A0F94FF00200A2
:1011F0004FF006014FF00702FFF798F94FF0020099
:101200004FF007014FF00202FFF790F94FF0020094
:101210004FF007014FF00302FFF788F94FF002008B
:101220004FF007014FF00602FFF780F94FF0020080
:101230004FF007014FF00702FFF778F94FF0010078
:101240004FF003014FF00202FFF770F94FF0010079
:101250004FF003014FF00702FFF768F94FF001006C
:101260004FF002014FF00602FFF760F94FF0010066
:101270004FF002014FF00502FFF758F94FF001005F
:101280004FF002014FF00402FFF750F94FF0010058
:101290004FF002014FF00302FFF748F980BD00BF95
:1012A00080B500AF48F2E010C1F6FF704FF00D01BD
:1012B00002F06AFD02F0DCFE80BD00BF80B582B0A6
:1012C00000AFFFF76DF801F021F802F0EFF802F03F
:1012D0005BFB72B600F0C8FC40F2A120C0F2000037
:1012E00000F0DAFC00F0F0FD40F24D10C0F200001A
:1012F00000F002FE02F004FF41F2A120C0F2000063
:1013000002F016FF62B601F091FA4FF0000000F013
:1013100001FB4FF0010000F01DFB4FF00003FB71DB
:1013200013E0FA7948F2C413C1F6FF734FF00001DD
:101330009954FA7948F2E013C1F6FF734FF00001B7
:101340009954FB7903F10103FB71FB790C2BE8D96C
:1013500040F6B83000F05AFB44F64070C0F200008E
:1013600002F0EEFC4FF4FA6000F050FB44F64470DB
:10137000C0F2000002F0E4FC44F64C70C0F2000041
:1013800002F0DEFC44F65470C0F2000002F0D8FC1B
:1013900044F65C70C0F2000002F0D2FC4FF0000096
:1013A0004FF0000102F098F844F66470C0F20000BB
:1013B00002F0CCF84FF001004FF0000102F08CF881
:1013C00044F67470C0F2000002F0C0F802F02AFE89
:1013D00045E001F01DFB01F02BF8FFF7CDFE01E029
:1013E000FFF7E6F801F064F80346002BF8D14FF060
:1013F000010001F005FC0346002B13D048F2F12355
:10140000C1F6FF734FF001021A7048F21213C1F6D1
:10141000FF734FF000021A70FEF7C2FF4FF4FA702C
:1014200000F0F4FA4FF0020001F0EAFB0346002B53
:1014300013D048F2F123C1F6FF734FF002021A7085
:1014400048F21213C1F6FF734FF000021A70FEF754
:10145000A7FF4FF4FA7000F0D9FAFFF7A9F848F2A5
:101460001213C1F6FF731B78012BB2D001F0DEF925
:1014700048F2F123C1F6FF731B78012B40F0F58091
:1014800048F21013C1F6FF731B781846FFF70AFAEB
:10149000FFF78EF84FF0010002F0A2F84FF00000C5
:1014A0004FF0000102F018F844F68470C0F200001A
:1014B00002F04CF853E001F0ABFA00F0B9FF4FF046
:1014C00000004FF0090102F007F848F21013C1F6CE
:1014D000FF731B78184602F035FA01E0FFF768F851
:1014E00000F0E6FF0346002BF8D14FF0010001F0B9
:1014F00087FB0346002B06D048F22913C1F6FF7381
:101500004FF001021A704FF0020001F079FB034620
:10151000002B06D048F22913C1F6FF734FF00102E9
:101520001A704FF0000001F0C3FC03461A4648F25F
:10153000F423C1F6FF731A8048F2F423C1F6FF7357
:101540001A884FF6FF739A4207D048F2F423C1F687
:10155000FF731B881846FFF7CFF9FFF729F848F209
:101560002913C1F6FF731B78002BA4D001F05EF99C
:101570004FF00003FB7116E0FA7948F2F013C1F660
:10158000FF7302F1380253F82230002B05D048F2E5
:10159000F023C1F6FF73FA791A70FFF709F8FB79A7
:1015A00003F10103FB71FB79072BE5D900F0B4FBD4
:1015B00000F0C8FB01E0FEF7FBFF48F22A13C1F67A
:1015C000FF731B78002BF6D000F012FC48F20513D5
:1015D000C1F6FF73197848F21113C1F6FF731B7837
:1015E000DAB248F2F023C1F6FF731B7808461146C1
:1015F0001A46FFF719F848F21113C1F6FF731A786B
:1016000048F2F023C1F6FF731B7852B25BB24FF081
:10161000010011461A46FFF797FB0346002B1CD02A
:1016200000F0F0FC00F0A8FC01E0FEF7C1FF48F27A
:101630002B13C1F6FF731B78092BF6D900F0F8FCC9
:101640004FF47A7000F0E2F9FEF7AAFE48F21213A6
:10165000C1F6FF734FF001021A7048F2F123C1F690
:10166000FF734FF002021A70B0E04FF0010001F07A
:10167000B7FF4FF000004FF0000101F02DFF44F6DE
:101680009070C0F2000001F061FF4FF001004FF0D8
:10169000000101F021FF44F69C70C0F2000001F04F
:1016A00055FF48F22F13C1F6FF734FF000021A7076
:1016B00023E0FFF74BF848F2C413C1F6FF739B7A9F
:1016C00003F1FF3148F2C413C1F6FF73DB7A03F173
:1016D000FF3248F2F013C1F6FF734FEAC1010A442A
:1016E00053F82230002B06D048F22F13C1F6FF73B7
:1016F0004FF000021A70FEF75BFF48F22F13C1F69D
:10170000FF731B78002BD4D048F2C413C1F6FF73CB
:10171000DB7A03F1FF33DAB248F2F023C1F6FF734C
:101720001A7048F2C413C1F6FF73DB7A4FF002005F
:101730004FF008011A46FEF7F9FE00F0EDFA00F04E
:1017400001FB01E0FEF734FF48F22A13C1F6FF73F4
:101750001B78002BF6D000F04BFB48F21113C1F6BA
:10176000FF731A7848F2F023C1F6FF731B7852B268
:101770005BB24FF0020011461A46FFF7E5FA034646
:10178000002B1CD000F03EFC00F0F6FB01E0FEF761
:101790000FFF48F22B13C1F6FF731B78092BF6D904
:1017A00000F046FC4FF47A7000F030F9FEF7F8FDD7
:1017B00048F21213C1F6FF734FF001021A7048F29B
:1017C000F123C1F6FF734FF001021A7048F22E1395
:1017D000C1F6FF734FF000021A7048F22C13C1F6E5
:1017E000FF734FF000021A7048F22D13C1F6FF7319
:1017F0004FF000021A7048F22B13C1F6FF734FF03E
:1018000000021A7048F21113C1F6FF734FF007027D
:101810001A7048F22A13C1F6FF734FF000021A70D3
:1018200048F22913C1F6FF734FF000021A7000BF8F
:1018300015E600BF054B1C7844F001041C70044BF6
:101840001A78D2B2034B1A70FEF73AFCE846004011
:10185000FA460040BC76004080B582B000AF4EF63C
:101860000C53CEF2000340F20042C0F2FA521A606A
:101870004EF61453CEF200034EF61452CEF200028E
:10188000126842F400721A604FF000037B6014E0AB
:101890007A687B684FEA830140F20003C0F20003DC
:1018A0000B441B68194648F20003C1F6FF7343F866
:1018B00022107B6803F101037B607B682F2BE7D943
:1018C00047F2BC63C4F200031B78DAB248F200337B
:1018D000C1F6FF731A704EF60853CEF2000348F2B9
:1018E0000002C1F6FF721A6002F00EFE07F108074F
:1018F000BD4680BD80B483B000AF0346FB7146F2A5
:101900007A43C4F20003FA791A7007F10C07BD4656
:1019100080BC704780B485B000AF0346FB7145F2D0
:10192000C013C4F200031B78DBB203F07F03FB7328
:1019300045F2C013C4F20003FA794FEAC212D1B2E1
:10194000FA7B41EA0202D2B21A7007F11407BD46CF
:1019500080BC704780B485B000AF0346FB7145F290
:10196000C013C4F200031B78DBB223F01003FB7337
:1019700045F2C013C4F20003FA794FEA0212D2B260
:1019800002F01002F97B42EA0102D2B21A7007F1AA
:101990001407BD4680BC704780B485B000AF0346D5
:1019A000FB7145F26013C4F200031B78DBB223F035
:1019B0000103FB7345F26013C4F20003FA7902F0ED
:1019C0000102F97B42EA0102D2B21A7007F1140750
:1019D000BD4680BC704700BF80B400AF45F26113C4
:1019E000C4F200031B78DBB203F001031846BD46C6
:1019F00080BC704780B483B000AF0346FB7101BE6A
:101A000007F10C07BD4680BC704700BF80B582B0AF
:101A100000AF78600BE048F22013C1F6FF731B683B
:101A2000184602F0A9FE7B68A3F500437B607B6843
:101A3000B3F5004FEFD848F21813C1F6FF731B68D7
:101A40007A6802FB03F3184602F096FE07F10807D6
:101A5000BD4680BD80B582B000AF0346FB80FA88EA
:101A600048F21C13C1F6FF731B7803FB02F3184600
:101A700002F082FE07F10807BD4680BD80B584B044
:101A800000AF03463960FB714EF60853CEF20003F7
:101A90001B68FB60FB791F2B03D94FF00000FFF799
:101AA000A9FFFB7903F01F0303F110034FEA830240
:101AB000FB6813441B68BB60FB7903F01F0303F151
:101AC00010034FEA8302FB6813443A681A60BB684C
:101AD000184607F11007BD4680BD00BF80B582B033
:101AE00000AF02460B46FA71BB71BB79072B03D9D5
:101AF0004FF00000FFF77EFFFB791F2B03D94FF05B
:101B00000000FFF777FFFB7903F01F0303F1604349
:101B100003F56443BA794FEA4212D2B21A7007F160
:101B20000807BD4680BD00BF80B584B000AF034646
:101B3000FB7102F029FE0346BB7344F29033C4F2FA
:101B400000031B78DAB248F27213C1F6FF731B78F8
:101B500042EA0303DAB248F27213C1F6FF731A7055
:101B600048F27213C1F6FF731B78FB73FB796FEABF
:101B70000303DAB248F27213C1F6FF731B7802EA6C
:101B80000303DAB248F27213C1F6FF731A70BB7B1B
:101B9000184602F0FDFDFB7B184607F11007BD4615
:101BA00080BD00BF80B485B000AF0346FB7145F235
:101BB0001013C4F200031B78DBB223F00403FB73A1
:101BC00045F21013C4F20003FA794FEA8202D2B24E
:101BD00002F00402F97B42EA0102D2B21A7007F164
:101BE0001407BD4680BC704780B483B000AF034685
:101BF000FB7146F27943C4F20003FA791A7007F1D7
:101C00000C07BD4680BC704780B485B000AF03466A
:101C1000FB7145F23013C4F200031B78DBB223F0F2
:101C20000103FB7345F23013C4F20003FA7902F0AA
:101C30000102F97B42EA0102D2B21A7007F11407DD
:101C4000BD4680BC704700BF80B483B000AF034680
:101C5000FB7146F27753C4F20003FA791A7007F168
:101C60000C07BD4680BC704780B500AF00F048F857
:101C700041F68D40C0F2000000F00EF84FF0070072
:101C800000F01EF800F030F880BD00BF80B400AF57
:101C9000BD4680BC704700BF80B485B000AF78609F
:101CA0004EF60853CEF200031B68FB60FB6803F19D
:101CB00054037A681A6007F11407BD4680BC704768
:101CC00080B483B000AF0346FB714EF20543CEF201
:101CD0000003FA794FEA4212D2B21A7007F10C07E8
:101CE000BD4680BC704700BF80B400AF4EF2001309
:101CF000CEF200034FF020021A60BD4680BC704750
:101D000080B400AF4EF28013CEF200034FF02002F9
:101D10001A60BD4680BC704780B500AF48F27413AE
:101D2000C1F6FF731B78002B08D100F00BF848F2C6
:101D30007413C1F6FF734FF001021A7000F00CF833
:101D400080BD00BF80B500AF4FF0070000F08AF8FB
:101D500000F06AF880BD00BF80B582B000AF44F2E9
:101D60000033C4F200031B78DBB203F00203002B44
:101D700024D102F009FD0346FB7144F20033C4F2A2
:101D8000000344F20032C4F200021278D2B242F0F0
:101D90000202D2B21A7044F28233C4F2000344F257
:101DA0008232C4F200021278D2B242F00402D2B2FD
:101DB0001A70FB79184602F0EBFC15E002F0E4FC27
:101DC0000346FB7144F28233C4F2000344F28232D0
:101DD000C4F200021278D2B242F00402D2B21A70F7
:101DE000FB79184602F0D4FC07F10807BD4680BD18
:101DF00080B582B000AF02F0C7FC0346FB7144F22D
:101E00008233C4F2000344F28232C4F20002127838
:101E1000D2B202F0FB021A70FB79184602F0B8FC4D
:101E200007F10807BD4680BD80B582B000AF02F063
:101E3000ABFC0346FB7144F28233C4F2000344F26C
:101E40008232C4F200021278D2B242F00802D2B258
:101E50001A70FB79184602F09BFC07F10807BD4693
:101E600080BD00BF80B483B000AF0346FB7144F275
:101E70008233C4F200031B78DBB203F00403002BAF
:101E800013D144F28133C4F2000344F28132C4F22C
:101E900000021278D2B2114601F0F001FA7902F094
:101EA0000F0241EA0202D2B21A7007F10C07BD46D6
:101EB00080BC704780B500AF4FF00200FFF734FEE2
:101EC0000346184680BD00BF80B500AF00F048F85B
:101ED00041F6ED60C0F2000000F00EF84FF0070090
:101EE00000F01EF800F030F880BD00BF80B400AFF5
:101EF000BD4680BC704700BF80B485B000AF78603D
:101F00004EF60853CEF200031B68FB60FB6803F13A
:101F100050037A681A6007F11407BD4680BC704709
:101F200080B483B000AF0346FB714EF20443CEF29F
:101F30000003FA794FEA4212D2B21A7007F10C0785
:101F4000BD4680BC704700BF80B400AF4EF20013A6
:101F5000CEF200034FF010021A60BD4680BC7047FD
:101F600080B400AF4EF28013CEF200034FF01002A7
:101F70001A60BD4680BC704780B582B000AF41F6A4
:101F8000FF20C0F2B70000F081F841F6FF20C0F258
:101F9000B70000F099F802F0F7FB0346FB7146F238
:101FA0009843C4F2000346F29842C4F20002127849
:101FB000D2B242F01002D2B21A70FB79184602F087
:101FC000E7FB00F091F84FF0010000F043F807F153
:101FD0000807BD4680BD00BF80B400AF46F27B431A
:101FE000C4F2000346F27B42C4F200021278D2B27D
:101FF0006FEA42626FEA5262D2B21A70BD4680BC8A
:10200000704700BF80B500AF48F27513C1F6FF738B
:102010001B78002B08D1FFF7AFFF48F27513C1F60C
:10202000FF734FF001021A70FFF7D6FF80BD00BFAB
:1020300080B400AF46F27B43C4F2000346F27B4219
:10204000C4F200021278D2B202F07F021A70BD46CA
:1020500080BC704780B483B000AF0346FB7146F28A
:102060008843C4F20003FA791A7007F10C07BD46E1
:1020700080BC704780B400AF46F26843C4F20003EE
:102080001B78DBB21846BD4680BC704780B582B075
:1020900000AF786046F22440C4F20000796802F094
:1020A0007BFB07F10807BD4680BD00BF80B400AFD1
:1020B00046F24443C4F200031B6823F07F431846F2
:1020C000BD4680BC704700BF80B582B000AF78606D
:1020D00046F20440C4F20000796802F05DFB07F1AB
:1020E0000807BD4680BD00BF80B500AF01E0FFF727
:1020F000DDFFFFF7BFFF034603F00803002BF6D117
:1021000080BD00BF80B582B000AF00F0E7F946F2B5
:102110008653C4F200034FF007021A7002F034FB3A
:102120000346FB7146F29753C4F2000346F29752FE
:10213000C4F200021278D2B242F00302D2B21A7094
:1021400046F29343C4F2000346F29342C4F2000203
:102150001278D2B242F00302D2B21A70FB7918465A
:1021600002F016FB46F22753C4F200034FF0FF3291
:102170001A7046F24753C4F200034FF0FF321A7050
:1021800046F20753C4F200034FF0FF321A7046F2D2
:102190002343C4F200034FF0FF321A7046F2534358
:1021A000C4F200034FF0FF321A7046F24343C4F208
:1021B00000034FF0FF321A704EF28013CEF200038C
:1021C0004FF001021A604FF0000042F64171C0F278
:1021D0000001FFF753FC4FF000004FF00701FFF73D
:1021E0007DFC01F0CFF84FF0070002F03DF94FF011
:1021F000080002F039F94FF0090002F035F946F213
:102200007743C4F2000346F27742C4F20002127828
:10221000D2B242F00402D2B21A7000F0E5FE00F031
:10222000A1FF4FF0000001F01BF84FF0040001F097
:1022300041F84FF0000001F067F807F10807BD46CC
:1022400080BD00BF80B582B000AF02F09DFA0346AA
:10225000FB7146F29653C4F2000346F29652C4F262
:1022600000021278D2B242F02002D2B21A7001F00B
:10227000A5F800F005FF00F0A9FF44F2BB33C4F25B
:10228000000344F2BB32C4F200021278D2B242F030
:102290002002D2B21A7044F2AB33C4F2000344F20B
:1022A000AB32C4F200021278D2B242F02002D2B2B3
:1022B0001A7045F67203C4F2000345F67202C4F2C6
:1022C00000021278D2B242F00102D2B21A70FB7947
:1022D000184602F05DFA4EF20013CEF200034FF002
:1022E00001021A6046F27743C4F2000346F27742D5
:1022F000C4F200021278D2B26FEA42626FEA52620E
:10230000D2B21A7007F10807BD4680BD80B500AF94
:1023100048F27813C1F6FF731B78002B08D1FFF742
:10232000F1FE48F27813C1F6FF734FF001021A7004
:10233000FFF788FF80BD00BF80B485B000AF0346C3
:10234000FB71FB7903F10103FB71FB79072B18D0BB
:10235000FB794FEAD303BB73FB7903F007034FF01C
:10236000010202FA03F3FB73BA7B48F22413C1F6AD
:10237000FF739A5CFB7B02EA0303DBB2002BE0D025
:1023800000E000BFFB79184607F11407BD4680BC8A
:10239000704700BF80B584B000AF0346FB71FA7987
:1023A00045F20003C0F200039B5CFB73FA7944F62C
:1023B000F473C0F200039B5C184600F0A5FF46F2E0
:1023C0005753C4F20003F97B44F6FC72C0F20002DA
:1023D000525C1A7048F22513C1F6FF731B78184639
:1023E00000F0B4F907F11007BD4680BD80B582B09A
:1023F00000AF0346FB7148F27913C1F6FF734FF04B
:1024000000021A7048F27A13C1F6FF73FA791A7053
:1024100048F27913C1F6FF736FF07E021A70FB79F0
:10242000184600F0F5F807F10807BD4680BD00BF6B
:1024300080B500AF48F27913C1F6FF734FF0000288
:102440001A7048F27A13C1F6FF734FF0FF321A7018
:1024500048F27A13C1F6FF731B78DBB21846FFF718
:102460006BFF03461A4648F27A13C1F6FF731A70DF
:1024700048F27A13C1F6FF731B78DBB2062B16D82D
:1024800048F27913C1F6FF731B78DBB243F0010306
:10249000DAB248F27913C1F6FF731A7048F27A1370
:1024A000C1F6FF731B78DBB2184600F0B1F880BDAF
:1024B00080B400AF48F27913C1F6FF731B78DBB22A
:1024C00003F00103DBB2002B02D04FF0010301E067
:1024D0004FF000031846BD4680BC704780B582B0FF
:1024E00000AF4FF00003FB7107E0FB79184600F0E6
:1024F0004BF8FB7903F10103FB71FB79062BF4D94F
:1025000007F10807BD4680BD80B584B000AF034623
:10251000FB71FA7944F6C473C0F200039B5CBB7391
:10252000FA7944F6CC73C0F200039B5CFB73FA7932
:1025300044F6A873C0F2000353F822304FF00902AA
:102540001A70BB7B0F2B02D14FF00703BB73BA7B12
:1025500044F6D473C0F2000353F82220B97B44F64A
:10256000D473C0F2000353F821301978FB7B41EAA1
:102570000303DBB21370FB79184601F075FF07F116
:102580001007BD4680BD00BF80B584B000AF0346D4
:10259000FB71FA7944F6C473C0F200039B5CBB7311
:1025A000FA7944F6CC73C0F200039B5CFB73FB79B1
:1025B000184601F07FFFBB7B0F2B02D14FF00703C2
:1025C000BB73BA7B44F6D473C0F2000353F82220E5
:1025D000B97B44F6D473C0F2000353F821301B7862
:1025E0001946FB7B6FEA0303DBB201EA0303DBB2AC
:1025F000DBB21370FA7944F6A873C0F2000353F803
:1026000022304FF008021A7007F11007BD4680BD56
:1026100080B582B000AF0346FB71FB791846FFF727
:10262000B9FE46F27743C4F2000346F27742C4F2A1
:1026300000021278D2B242F00102D2B21A7045F60C
:102640007203C4F2000345F67202C4F2000212786B
:10265000D2B202F0FE021A70FB791846FFF754FF5F
:1026600046F27743C4F2000346F27742C4F2000216
:102670001278D2B242F00202D2B21A7007F1080701
:10268000BD4680BD80B582B000AF0346FB7146F207
:102690007743C4F2000346F27742C4F20002127894
:1026A000D2B202F0FC021A70FA7946F21343C4F275
:1026B00000031B78DBB24FEA032399B248F27C1384
:1026C000C1F6FF7323F81210FA79F97948F27C13F6
:1026D000C1F6FF7333F8111046F20343C4F200034E
:1026E0001B78DBB241EA030399B248F27C13C1F6CE
:1026F000FF7323F81210FA79F97948F27C13C1F6C6
:10270000FF7333F811306FEA030399B248F27C1378
:10271000C1F6FF7323F81210FB791846FFF734FF58
:102720004FF0000000F0F0FD45F67203C4F2000324
:1027300045F67202C4F200021278D2B242F00102EF
:10274000D2B21A7007F10807BD4680BD80B483B0CD
:1027500000AF0346FB7146F22653C4F20003FA7938
:102760001A7046F23653C4F20003FA794FEA520265
:10277000D2B21A7007F10C07BD4680BC704700BF8B
:1027800080B485B000AF0346FB71FA7945F20003CF
:10279000C0F200039B5CFB73FA79F97948F27C1371
:1027A000C1F6FF7333F8111048F28C13C1F6FF73B2
:1027B00023F81210FA7948F29C13C1F6FF734FF018
:1027C00000019954FA7948F2A413C1F6FF734FF04F
:1027D00000019954FB7B002B0DD0FB7B03F1FF32F2
:1027E000F97B45F21403C0F20003595C48F2B413BC
:1027F000C1F6FF73995407F11407BD4680BC7047BA
:1028000080B582B000AF0346FB71FB791846FFF735
:10281000EDFDFFF74DFE0346002BFAD1FB7918467C
:10282000FFF7AEFF07F10807BD4680BD80B582B057
:1028300000AF4FF00003FB7107E0FB791846FFF78C
:10284000DFFFFB7903F10103FB71FB79062BF4D960
:1028500007F10807BD4680BD80B586B000AF0346CE
:10286000FB71FA7945F20003C0F200039B5CBB7573
:10287000BA7D45F20C03C0F200039B5CFB75FA794C
:1028800048F27C13C1F6FF7333F81230BB82FA7939
:1028900048F28C13C1F6FF7333F81230BA8A9A42A9
:1028A0000ED3FA7948F28C13C1F6FF7333F8123065
:1028B000BA8AC3EB02037B824FF00103BB750DE0C4
:1028C000FA7948F28C13C1F6FF7333F81220BB8AF1
:1028D000C3EB02037B824FF00003BB75BB7D002B73
:1028E00026D17B8A142B23D9FA7948F20433C1F616
:1028F000FF739B5C042B0CD9FB791846FFF740FF54
:10290000FA7948F20433C1F6FF734FF0000199548D
:1029100056E0FA7948F20433C1F6FF739B5C03F189
:102920000103D9B248F20433C1F6FF73995447E06A
:10293000FB7D7A8A9A4205D97B8A132B40D8BB7DCE
:10294000002B3DD1FA7948F28C13C1F6FF7333F8AE
:1029500012304FEA0323FB60FA7948F29C13C1F668
:10296000FF739B5CFA6842EA0303FB60BB8AFA6868
:102970001344FB60FA7948F28C13C1F6FF7333F805
:102980001230FA68C3EB0203FB60FA79FB684FEA86
:10299000132399B248F28C13C1F6FF7323F8121077
:1029A000FA79FB68D9B248F29C13C1F6FF739954C7
:1029B000FA7948F20433C1F6FF734FF000019954DD
:1029C000FB7D7A8A9A4217D9BB7D002B14D07B8A73
:1029D000FF2B08D9FA7948F2A413C1F6FF734FF020
:1029E000FF31995410E0FA797B8AD9B248F2A413E6
:1029F000C1F6FF73995407E0FA7948F2A413C1F6BF
:102A0000FF734FF00001995407F11807BD4680BDD0
:102A100080B582B000AF4FF000037B711FE07B797F
:102A20004FEAD303BB717B7903F007034FF0010238
:102A300002FA03F3FB71BA7948F22413C1F6FF736B
:102A40009A5CFB7902EA0303DBB2002B03D07B79AB
:102A50001846FFF701FF7B7903F101037B717B7956
:102A6000062BDCD907F10807BD4680BD80B485B0D0
:102A700000AF0346FB71FB794FEAD303BB72FB79CE
:102A800003F007034FF0010202FA03F3FB72FA7935
:102A900045F20003C0F200039B5C3B733A7B45F2B6
:102AA0000803C0F200039B5C7B733A7B45F2100382
:102AB000C0F200039B5CBB733A7B45F21403C0F287
:102AC00000039B5CFB733B7B002B0BD14FF002039D
:102AD0007B727A7A48F2B413C1F6FF734FF00101AA
:102AE000995403E03B7B03F1FF337B72BA7A48F2DF
:102AF000AC13C1F6FF739A5CFB7A02EA0303DBB204
:102B0000002B29D0FA7948F2A413C1F6FF739B5C1D
:102B10001A46797BBB7BC3EB01039A4256DABA7A39
:102B2000B97A48F2AC13C1F6FF735B5C1946FB7AC5
:102B30006FEA0303DBB201EA0303DBB2D9B248F266
:102B4000AC13C1F6FF7399547A7A48F2B413C1F604
:102B5000FF73F97B99543CE0FA7948F2A413C1F66B
:102B6000FF739B5C1A46797BBB7B0B449A4225DD45
:102B70007A7A48F2B413C1F6FF739B5C012B8CBFC9
:102B800000210121C9B203F1FF33D8B248F2B413D6
:102B9000C1F6FF73985400291AD0BA7AB97A48F26C
:102BA000AC13C1F6FF73595CFB7A41EA0303D9B257
:102BB00048F2AC13C1F6FF7399540AE07A7A48F2EE
:102BC000B413C1F6FF73F97B995402E000BF00E033
:102BD00000BFBA7A48F2AC13C1F6FF739A5CFB7A75
:102BE00002EA0303DBB2002B02D04FF0010301E045
:102BF0004FF00003184607F11407BD4680BC70472C
:102C000080B584B000AF0346FB71FA7945F2180332
:102C1000C0F200039B5C7B73FA7945F21C03C0F29F
:102C200000039A5C7B7B1344BB734FF00003FB7380
:102C30007B7B1846FFF71AFF0346002B02D04FF0AC
:102C40000103FB737B7B03F101037B737A7BBB7B0B
:102C50009A42EDD3FB7B184607F11007BD4680BDB5
:102C600080B485B000AF13460246FA710A46BA71C5
:102C70007B714FF0FF33BB724FF00003FB72FA79A8
:102C800048F2A413C1F6FF731344FB604FF0000336
:102C90007B7218E07A7AFB6813441B787A799A423F
:102CA0000DD27A7AFB6813441B78FA7A9A4206D2DC
:102CB0007B7ABB727A7AFB6813441B78FB727B7A4F
:102CC00003F101037B727A7ABB799A42E2D3BB7A31
:102CD000184607F11407BD4680BC704780B487B022
:102CE00000AFF871B9717A717B80BA7948F2A41398
:102CF000C1F6FF7313447B61FB7903F1FF337B72F1
:102D0000FB7903F10103BB72FA797B6913441A78EA
:102D100048F2B013C1F6FF735A70FB79002B10D143
:102D200048F2B013C1F6FF734FF000021A70BA7A7E
:102D30007B6913441A7848F2B013C1F6FF739A7096
:102D400028E0FA797B7903F1FF339A4210D17A7A3D
:102D50007B6913441A7848F2B013C1F6FF731A70F6
:102D600048F2B013C1F6FF734FF000029A7011E001
:102D70007A7A7B6913441A7848F2B013C1F6FF736C
:102D80001A70BA7A7B6913441A7848F2B013C1F604
:102D9000FF739A7048F2B013C1F6FF731B7897F86F
:102DA00020209A420FD248F2B013C1F6FF731A786E
:102DB00097F82030C3EB0203DAB248F2B013C1F641
:102DC000FF731A7006E048F2B013C1F6FF734FF0BC
:102DD00000021A7048F2B013C1F6FF735A7897F8E0
:102DE0002030C3EB0203DAB248F2B013C1F6FF732E
:102DF0005A7048F2B013C1F6FF739B7897F8202001
:102E00009A420FD248F2B013C1F6FF739A7897F83E
:102E10002030C3EB0203DAB248F2B013C1F6FF73FD
:102E20009A7006E048F2B013C1F6FF734FF000024B
:102E30009A7048F2B013C1F6FF739B781A4648F2B5
:102E4000B013C1F6FF731B78C3EB0203FB6048F2BB
:102E5000B013C1F6FF731B781A4648F2B013C1F6DF
:102E6000FF735B781A4448F2B013C1F6FF739B7886
:102E700013443B61FB684FEA03223B6992FBF3F288
:102E8000FB794FEA032313443B617A883B6902FBD9
:102E900003F33B613B6903F5FE434FEA1343FB72C7
:102EA000FB7A184607F11C07BD4680BC704700BF7F
:102EB00080B586B002AF0346FB71FA7945F218037C
:102EC000C0F200039B5CBB73FA7945F21C03C0F2AD
:102ED00000039B5CFB73FA7945F20803C0F2000320
:102EE0009B5CB97BFA7B084611461A46FFF7B8FE91
:102EF0000346FB72FB7AFF2B19D0FA7945F22003C7
:102F0000C0F2000333F812C0FA7945F20C03C0F2A4
:102F10000003985CF97ABA7BFB7B00900846114667
:102F20001A466346FFF7DAFE0346BB8102E04FF61E
:102F3000FF73BB81BB89184607F11007BD4680BDF2
:102F400080B500AF48F27A13C1F6FF731B78DBB28D
:102F50001846FFF797FB48F27913C1F6FF731B7809
:102F6000DBB25BB2002B0EDA48F27913C1F6FF73C5
:102F70001B78DBB21A4602F0FE0248F27913C1F662
:102F8000FF731A702FE048F27A13C1F6FF731B78B3
:102F9000DBB21846FFF7D0F903461A4648F27A1317
:102FA000C1F6FF731A7048F27A13C1F6FF731B78EB
:102FB000DBB2062B09D848F27A13C1F6FF731B78EF
:102FC000DBB21846FFF724FB0DE048F27913C1F697
:102FD000FF731B78DBB21A4602F0FE0248F2791347
:102FE000C1F6FF731A7080BD80B500AF4FF00000CE
:102FF00000F068F845F64103C4F2000345F64102CB
:10300000C4F200021278D2B242F02002D2B21A7098
:1030100045F64103C4F2000345F64102C4F2000242
:103020001278D2B202F0FB021A7045F64103C4F2E4
:10303000000345F64102C4F200021278D2B242F017
:103040000802D2B21A7045F6CF23C4F2000345F647
:10305000CF22C4F200021278D2B202F0E7021A7054
:1030600045F6CF23C4F2000345F6CF22C4F2000296
:103070001278D2B242F01002D2B21A7080BD00BFF4
:1030800080B400AF44F2A733C4F2000344F2A73285
:10309000C4F200021278D2B242F00202D2B21A7026
:1030A00044F2B733C4F2000344F2B732C4F2000270
:1030B0001278D2B242F00202D2B21A70BD4680BC7F
:1030C000704700BF80B483B000AF0346FB7145F684
:1030D0004103C4F2000345F64102C4F20002127833
:1030E000D2B2D1B201F0FC01FA79D2B202F00302FD
:1030F00041EA0202D2B2D2B21A70FB79012B16D188
:1031000044F23263C4F2000340F21112C4F600121A
:103110001278D2B21A7044F23363C4F2000340F260
:103120001512C4F600121278D2B21A7015E044F2E9
:103130003263C4F2000340F2AF12C4F600121278F8
:10314000D2B21A7044F23363C4F2000340F2B712F1
:10315000C4F600121278D2B21A7007F10C07BD46FD
:1031600080BC704780B500AF45F62C03C4F2000365
:103170004FF014021A7045F62D03C4F200034FF00D
:1031800000021A7045F62D03C4F2000345F62D0225
:10319000C4F200021278D2B242F00402D2B21A7023
:1031A00045F62D03C4F2000345F62D02C4F20002D9
:1031B0001278D2B242F00202D2B21A704FF000007E
:1031C00000F026F800F0B0F880BD00BF80B400AF7A
:1031D00044F2A833C4F2000344F2A832C4F200025D
:1031E0001278D2B242F00802D2B21A7044F2B83366
:1031F000C4F2000344F2B832C4F200021278D2B230
:1032000042F00802D2B21A70BD4680BC704700BFBF
:1032100080B483B000AF0346FB7145F62C03C4F2C3
:10322000000345F62C02C4F200021278D2B202F07A
:10323000FD021A7045F62C03C4F2000345F62C0279
:10324000C4F200021278D1B2FA7902F0020241EA25
:103250000202D2B21A7007F10C07BD4680BC70475B
:1032600080B582B000AF0346FB7145F62D03C4F272
:10327000000345F62D02C4F200021278D2B202F029
:10328000FB021A7045F62D03C4F2000345F62D0229
:10329000C4F200021278D1B2FA7902F0040241EAD3
:1032A0000202D2B21A7000F03FF807F10807BD46DB
:1032B00080BD00BF80B582B000AF0346FB7145F60C
:1032C0002C03C4F2000345F62C02C4F2000212786B
:1032D000D2B202F0F3021A7045F62C03C4F20003D6
:1032E00045F62C02C4F200021278D1B2FA7902F04B
:1032F0000C0241EA0202D2B21A7000F015F807F18E
:103300000807BD4680BD00BF80B483B000AF034650
:10331000FB7145F68333C4F20003FA791A7007F1A2
:103320000C07BD4680BC704780B483B000AF45F643
:103330002C03C4F200031B78DBB203F00C034FEA4A
:103340005303FB7145F62D03C4F200031B78DBB277
:1033500003F00403002B03D0FB7903F10103FB719D
:1033600044F20B63C4F20003FA7902F1924202F5CF
:103370009C721278D2B21A7007F10C07BD4680BC5D
:10338000704700BF80B500AF00F002F880BD00BFFD
:1033900080B582B000AF4FF00003FB7107E0FB790E
:1033A000184601F087F8FB7903F10103FB71FB7903
:1033B000092BF4D907F10807BD4680BD80B400AFE2
:1033C00044F2A233C4F2000344F2A232C4F2000277
:1033D0001278D2B242F00102D2B21A7044F2B23381
:1033E000C4F2000344F2B232C4F200021278D2B244
:1033F00042F00102D2B21A70BD4680BC704700BFD5
:1034000080B500AF4FF02800FEF700FB4FF003003F
:1034100000F052FA4FF00500FEF7F8FA4FF0030003
:1034200000F04AFA4FF00F00FEF7F0FA4FF00300F9
:1034300000F042FA4FF00100FEF7E8FA4FF0020008
:1034400000F03AFA4FF00500FEF7E0FA4FF0060000
:1034500000F0C6F84FF00E0000F0C2F84FF02C005C
:1034600000F0BEF84FF0080000F0BAF84FF001008D
:1034700000F0B6F84FF00C0000F0B2F84FF0030087
:1034800000F0AEF84FF00500FEF7C0FA80BD00BFB7
:1034900080B500AF4FF00C0000F0A2F848F2B8136E
:1034A000C1F6FF734FF001021A7080BD80B500AF06
:1034B00048F2B913C1F6FF731B78002B08D1FFF750
:1034C0009FFF48F2B913C1F6FF734FF001021A7063
:1034D000FFF7DEFF80BD00BF80B582B000AF0246BF
:1034E0000B46FA71BB71FB79032B2AD801A252F863
:1034F00023F000BF0535000015350000253500001C
:1035000035350000BB79A3F18003DBB2184600F02B
:1035100067F816E0BB79A3F14003DBB2184600F070
:103520005FF80EE0BB79A3F16C03DBB2184600F044
:1035300057F806E0BB79A3F12C03DBB2184600F084
:103540004FF807F10807BD4680BD00BF80B584B0C5
:1035500000AF78604FF00103BB737B681B78FB738F
:103560000CE0FB7B184600F01FF8BA7B7B68134425
:103570001B78FB73BB7B03F10103BB73FB7B002B4D
:10358000EFD107F11007BD4680BD00BF80B582B006
:1035900000AF0346FB71FB79184600F005F807F110
:1035A0000807BD4680BD00BF80B584B000AF0346AC
:1035B000FB7100F031F8FB794FEA1313FB73FB7BCF
:1035C000184600F023F9FB7903F00F03FB73FB7B34
:1035D000184600F01BF907F11007BD4680BD00BF7B
:1035E00080B584B000AF0346FB7100F015F8FB799D
:1035F0004FEA1313FB73FB7B184600F05DF9FB7970
:1036000003F00F03FB73FB7B184600F055F907F13D
:103610001007BD4680BD00BF80B582B000AF45F247
:103620002013C4F2000345F22012C4F20002127803
:10363000D2B202F080021A7045F22213C4F20003E3
:103640001B78DBB223F00F03FB7145F22213C4F2A7
:103650000003FA7942F00F02D2B21A7045F2231336
:10366000C4F200031B78DBB223F00F03FB7145F2B9
:103670002313C4F20003FA791A7045F22413C4F23A
:1036800000031B78DBB223F00F03FB7145F2241318
:10369000C4F20003FA791A7045F22013C4F2000351
:1036A00045F22012C4F200021278D2B202F0DF0218
:1036B0001A7045F22013C4F2000345F22012C4F23E
:1036C00000021278D2B242F04002D2B21A704FF029
:1036D0000000FEF7BFF945F22013C4F2000345F2E3
:1036E0002012C4F200021278D2B242F01002D2B21A
:1036F0001A704FF00100FEF7ADF945F22113C4F244
:1037000000031B78FB7145F22013C4F2000345F25D
:103710002012C4F200021278D2B202F0EF021A7044
:10372000FB7903F00803FB7145F22013C4F2000398
:1037300045F22012C4F200021278D2B242F0100216
:10374000D2B21A704FF00100FEF784F945F220134F
:10375000C4F2000345F22012C4F200021278D2B281
:1037600002F0EF021A70FB79002BB0D145F2201362
:10377000C4F2000345F22012C4F200021278D2B261
:1037800002F0BF021A7045F22013C4F2000345F2A2
:103790002012C4F200021278D2B202F080021A7033
:1037A00045F22213C4F2000345F22212C4F20002D1
:1037B0001278D2B202F0F0021A7045F22313C4F26A
:1037C00000031B78DBB223F00F03FB7145F22313D8
:1037D000C4F20003FA7942F00F02D2B21A7045F235
:1037E0002413C4F200031B78DBB223F00F03FB7138
:1037F00045F22413C4F20003FA7942F00F02D2B268
:103800001A7007F10807BD4680BD00BF80B582B0C1
:1038100000AF0346FB71FFF7FFFE45F22013C4F231
:10382000000345F22012C4F200021278D2B242F034
:103830002002D2B21A7045F22013C4F2000345F2FE
:103840002012C4F200021278D2B202F0BF021A7043
:1038500045F22013C4F2000345F22012C4F2000224
:103860001278D2B202F0F0021A7045F22013C4F2BC
:10387000000345F22012C4F200021278D1B2FA79A4
:1038800041EA0202D2B242F01002D2B21A704FF0F4
:103890000100FEF7DFF845F22013C4F2000345F201
:1038A0002012C4F200021278D2B202F0EF021A70B3
:1038B00007F10807BD4680BD80B582B000AF034662
:1038C000FB7145F22013C4F2000345F22012C4F24A
:1038D00000021278D2B202F09F021A7045F2201351
:1038E000C4F2000345F22012C4F200021278D2B2F0
:1038F00002F0F0021A7045F22013C4F2000345F200
:103900002012C4F200021278D1B2FA7941EA02021E
:10391000D2B242F01002D2B21A704FF00100FEF79C
:1039200099F845F22013C4F2000345F22012C4F2C4
:1039300000021278D2B202F0EF021A7007F1080703
:10394000BD4680BD80B582B000AF0346FB71FB79F8
:103950004FEA1313DBB21A4645F22403C0F2000308
:103960009B5C1846FFF712FEFB7903F00F0245F24D
:103970002403C0F200039B5C1846FFF707FE07F123
:103980000807BD4680BD00BF80B500AF48F2BA133E
:10399000C1F6FF731B78002B08D100F00BF848F23A
:1039A000BA13C1F6FF734FF001021A7000F044F829
:1039B00080BD00BF80B500AF4FF0010043F6D1518C
:1039C000C0F20001FEF75AF84FF001004FF0070176
:1039D000FEF784F846F28443C4F200034FF072020B
:1039E0001A7046F28543C4F200034FF020021A70A9
:1039F0004FF0020043F6BD61C0F20001FEF73EF851
:103A00004FF002004FF00701FEF768F846F221433D
:103A1000C4F200034FF007021A7046F23143C4F2B9
:103A200000034FF048021A7046F28343C4F20003C9
:103A30004FF002021A7080BD80B582B000AF00F076
:103A4000A3FE0346FB7146F29443C4F2000346F220
:103A50009442C4F200021278D2B242F02002D2B2F2
:103A60001A7046F29543C4F2000346F29542C4F23E
:103A700000021278D2B242F01002D2B21A704EF2A4
:103A80000013CEF200034FF002021A6046F2934395
:103A9000C4F2000346F29342C4F200021278D2B29A
:103AA00042F01002D2B21A704EF20013CEF20003AE
:103AB0004FF004021A6000F04DFAFB79184600F04E
:103AC00067FE07F10807BD4680BD00BF80B400AFA8
:103AD0004EF20013CEF200034FF002021A60BD4610
:103AE00080BC704780B400AF4EF28013CEF200036A
:103AF0004FF002021A60BD4680BC704780B582B0AC
:103B000000AF4FF000033B71FFF7ECFF48F2BD132D
:103B1000C1F6FF731B78BB7148F2BE13C1F6FF7389
:103B20001B78FB7148F2BF13C1F6FF731B78DBB241
:103B3000002B03D1BA79FB799A4226D0BA7948F2A0
:103B40000C33C1F6FF739B5C3B71BB7903F101033E
:103B5000BB71BB793F2B02D94FF00003BB7148F218
:103B6000BD13C1F6FF73BA791A7048F2BF13C1F6DC
:103B7000FF731B78DBB2002B21D048F2BF13C1F6D4
:103B8000FF734FF000021A701AE046F26543C4F268
:103B900000031B787B717B7903F02003002B0FD08F
:103BA00046F24743C4F200031B783B717B7903F074
:103BB0001E03002B04D04FF000033B7100E000BF58
:103BC000FFF784FF3B79184607F10807BD4680BD23
:103BD00080B582B000AFFFF785FF48F2BD13C1F694
:103BE000FF731B78DAB248F2BE13C1F6FF731B787D
:103BF000DBB29A420FD148F2BF13C1F6FF731B78B4
:103C0000DBB2002B03D04FF04003FB7133E04FF0E9
:103C10000003FB712FE048F2BD13C1F6FF731B7860
:103C2000DAB248F2BE13C1F6FF731B78DBB29A42D8
:103C30000FD248F2BE13C1F6FF731B78DAB248F216
:103C4000BD13C1F6FF731B78DBB2C3EB0203FB713C
:103C500011E048F2BE13C1F6FF731B78DAB248F2E6
:103C6000BD13C1F6FF731B78DBB2C3EB0203DBB2FB
:103C700003F14003FB71FFF729FFFB79184607F1B9
:103C80000807BD4680BD00BF80B485B000AF0346C5
:103C9000FB7148F2BC13C1F6FF731B78BB7348F28B
:103CA000BB13C1F6FF731B78FB73BA7BFB7B9A4295
:103CB00009D2BA7BFB7B03F1FF339A4214BF002386
:103CC0000123DBB208E0BA7BFB7BC3EB02033F2B93
:103CD00014BF00230123DBB2002BDAD1FA7BBB7BBC
:103CE0009A4210D146F26343C4F200031B78DBB260
:103CF00003F00403002B06D146F24043C4F2000354
:103D0000FA791A7016E0BB7B3F2B02D94FF0000303
:103D1000BB73BA7B48F24C33C1F6FF73F9799954FF
:103D2000BB7B03F10103BB7348F2BC13C1F6FF7305
:103D3000BA7B1A7007F11407BD4680BC704700BFFC
:103D400080B584B000AF78604FF00003FB8148F28B
:103D5000BA13C1F6FF731B78002B11D00AE0FA8961
:103D60007B6813441B781846FFF78EFFFB8903F12D
:103D70000103FB81FA897B6813441B78002BEED189
:103D800007F11007BD4680BD80B584B000AF7860F4
:103D90000B46FB704FF00003FB7348F2BA13C1F6F9
:103DA000FF731B78002B0ED0FA7B7B6813441B78C3
:103DB0001846FFF769FFFB7B03F10103FB73FA7BF6
:103DC000FB789A42F0D307F11007BD4680BD00BFD3
:103DD00080B483B000AF4FF00003FB7146F265433F
:103DE000C4F200031B78BB715EE048F2BE13C1F65B
:103DF000FF731B78DBB21A4646F24743C4F2000356
:103E00001B78D9B248F20C33C1F6FF7399544FF0C6
:103E10000103FB71FB79002B40D048F2BF13C1F6C0
:103E2000FF731B78DBB2002B06D048F2C013C1F63B
:103E3000FF734FF001021A7048F2BE13C1F6FF7310
:103E40001B78DBB203F10103DAB248F2BE13C1F60C
:103E5000FF731A7048F2BE13C1F6FF731B78DBB212
:103E60003F2B06D948F2BE13C1F6FF734FF0000294
:103E70001A7048F2BE13C1F6FF731B78DAB248F22B
:103E8000BD13C1F6FF731B78DBB29A4206D148F22C
:103E9000BF13C1F6FF734FF001021A7046F265437B
:103EA000C4F200031B78BB71BB7903F02003002B25
:103EB0009BD107F10C07BD4680BC704780B400AFB2
:103EC0002EE048F2BB13C1F6FF731B78DBB23F2B29
:103ED00006D948F2BB13C1F6FF734FF000021A7007
:103EE00046F24043C4F2000348F2BB12C1F6FF722F
:103EF0001278D2B2114648F24C32C1F6FF72525CCF
:103F0000D2B21A7048F2BB13C1F6FF731B78DBB252
:103F100003F10103DAB248F2BB13C1F6FF731A7062
:103F200048F2BB13C1F6FF731B78DAB248F2BC1338
:103F3000C1F6FF731B789A4209D046F26343C4F27C
:103F400000031B78DBB203F00403002BB9D0BD469D
:103F500080BC704780B400AF44F2A233C4F20003C7
:103F600044F2A232C4F200021278D2B242F002024B
:103F7000D2B21A7044F2B233C4F2000344F2B23245
:103F8000C4F200021278D2B242F00202D2B21A7027
:103F9000BD4680BC704700BF80B582B000AF41F61F
:103FA000FF20C0F2B70000F06FF841F6FF20C0F22A
:103FB000B70000F087F800F0E7FB0346FB7146F21C
:103FC0009A43C4F2000346F29A42C4F20002127805
:103FD000D2B242F01002D2B21A70FB79184600F049
:103FE000D7FB00F07FF84FF0010000F031F807F147
:103FF0000807BD4680BD00BF80B400AF46F27843DD
:10400000C4F2000346F27842C4F200021278D2B23F
:104010006FEA42626FEA5262D2B21A70BD4680BC49
:10402000704700BF80B500AF48F2C213C1F6FF73FE
:104030001B78002B08D1FFF7AFFF48F2C213C1F67F
:10404000FF734FF001021A70FFF7D6FF80BD00BF6B
:1040500080B483B000AF0346FB7146F28A43C4F2DA
:104060000003FA791A7007F10C07BD4680BC70474F
:1040700080B400AF46F26A43C4F200031B78DBB29F
:104080001846BD4680BC704780B582B000AF7860EE
:1040900046F22840C4F20000796800F07DFB07F189
:1040A0000807BD4680BD00BF80B400AF46F248435C
:1040B000C4F200031B6823F07F431846BD4680BC52
:1040C000704700BF80B582B000AF786046F208400C
:1040D000C4F20000796800F05FFB07F10807BD46F5
:1040E00080BD00BF80B500AF01E0FFF7DDFFFFF747
:1040F000BFFF034603F00803002BF6D180BD00BFCD
:1041000080B500AF00F048F844F22510C0F200007E
:1041100000F00EF84FF0070000F01EF800F030F845
:1041200080BD00BF80B400AFBD4680BC704700BFFB
:1041300080B485B000AF78604EF60853CEF200032D
:104140001B68FB60FB6803F14C037A681A6007F197
:104150001407BD4680BC704780B483B000AF0346EF
:10416000FB714EF20343CEF20003FA794FEA42129A
:10417000D2B21A7007F10C07BD4680BC704700BF71
:1041800080B400AF4EF20013CEF200034FF00802ED
:104190001A60BD4680BC704780B400AF4EF28013F9
:1041A000CEF200034FF008021A60BD4680BC704793
:1041B00080B582B000AF7860396078684FF0000158
:1041C0003A6800F011FE07F10807BD4680BD00BF48
:1041D00080B584B000AFF860B9607A60F868B968FB
:1041E0007A6800F039FD07F11007BD4680BD00BFB9
:1041F00080B487B000AF786039604FF00003FB6097
:104200004FF00003BB602CE0BB684FEA83027B6881
:1042100013441B683B613B69FB753B6923F0FF035B
:104220003B6117E0FB684FEA43023B6813441B788D
:104230001A463B691344FA684FEA42013A680A4455
:1042400052781A70FB6803F10103FB60FB7D03F1F8
:10425000FF33FB75FB7D002BE4D1BB6803F1010349
:10426000BB60BB68202BCFD907F11C07BD4680BCC3
:10427000704700BF80B582B000AF44F28003C4F243
:1042800000034FF001021A8044F28203C4F20003DB
:104290004FF018021A7044F28403C4F200034FF482
:1042A0009C721A8044F28603C4F200034FF0180295
:1042B0001A7044F20033C4F200034FF002021A7085
:1042C00044F20003C4F200034FF008021A7044F2F3
:1042D0000023C4F200034FF003021A7044F2A163FA
:1042E000C4F2000340F20812C4F600121278D2B2EF
:1042F0001A7044F22223C4F200034FF008021A801D
:1043000044F22023C4F2000341F251021A804FF01C
:104310000003FB714FF019033B6019E0FB794FEA92
:104320004303DAB244F22523C4F200031B78DBB264
:1043300003F0010342EA0303DBB203F00303FB7162
:104340004FF4F07000F018FA3B6803F1FF333B6064
:104350003B68002B02D0FB79032BDFD144F204032E
:10436000C4F200034FF480721A8044F20403C4F2D2
:1043700000034FF007021A7044F20603C4F2000370
:104380004FF000021A7044F20803C4F200034FF029
:1043900048021A7044F20403C4F200034FF0000212
:1043A0001A7044F20103C4F200034FF002021A70C3
:1043B00044F2A233C4F2000344F2A232C4F2000277
:1043C0001278D2B242F00302D2B21A7007F1080793
:1043D000BD4680BD80B483B000AF40F2CF13C4F6B9
:1043E00000131B78FB7145F66E03C4F20003FA79E3
:1043F00002F007021A7045F66F03C4F20003FA795F
:104400004FEA1212D2B21A7045F2FD13C4F2000341
:104410004FF020021A7045F67203C4F200034FF009
:1044200000021A7045F68C23C4F200034FF0030219
:104430001A7045F6CB23C4F200034FF020021A7025
:1044400045F65833C4F200034FF002021A7045F6E5
:104450007603C4F200034FF044021A7007F10C0710
:10446000BD4680BC704700BF80B483B000AF034638
:10447000FB71FB79092B18D8FA7945F23403C0F2A5
:10448000000353F82220F97945F23403C0F2000307
:1044900053F821301978F87945F25C03C0F2000333
:1044A0001B5C41EA0303DBB2137007F10C07BD4646
:1044B00080BC704780B483B000AF0346FB71FB79CA
:1044C000092B1BD8FA7945F23403C0F2000353F8E4
:1044D0002220F97945F23403C0F2000353F8213069
:1044E0001978F87945F25C03C0F200031B5C6FEAAF
:1044F0000303DBB201EA0303DBB2137007F10C071D
:10450000BD4680BC704700BF80B582B000AF72B6B8
:1045100044F2E863C4F2000344F2E862C4F2000229
:104520001278D2B242F00402D2B21A704FF00003F5
:10453000FB702FE0FA7813464FEA430313444FEA27
:1045400043031A4645F26803C0F2000313447B603C
:104550007B681A7859784FEA012141EA020299787A
:104560004FEA014141EA0202DB784FEA036343EA82
:1045700002031A467B6819795B794FEA032343EA01
:1045800001039BB210461946FFF712FEFB7803F1B8
:104590000103FB70FB78052BCCD94FF0904040F223
:1045A0008401C4F60001FFF723FE45F67203C4F24E
:1045B00000034FF440721A8045F64A03C4F2000328
:1045C00040F203121A8045F20303C4F2010345F2DC
:1045D0000302C4F201021278D2B242F00202D2B255
:1045E0001A7045F21303C4F2010345F21302C4F238
:1045F00001021278D2B242F00202D2B21A7044F230
:10460000A033C4F2000344F2A032C4F200021278D4
:10461000D2B242F04002D2B21A7044F2C233C4F2B3
:10462000000344F2C232C4F200021278D2B242F065
:104630001002D2B21A7045F20010C4F2000040F627
:104640007401C4F600014FF00A02FFF7C1FD45F204
:10465000C210C4F2000040F68001C4F600014FF021
:104660000802FFF7B5FD45F2F210C4F2000040F673
:104670008801C4F600014FF00802FFF7A9FD45F2DA
:104680001210C4F2000040F69001C4F600014FF091
:104690000802FFF79DFD45F22210C4F2000040F62B
:1046A0009801C4F600014FF00802FFF791FD45F2B2
:1046B0003210C4F2000040F6A001C4F600014FF031
:1046C0000802FFF785FD45F25210C4F2000040F6E3
:1046D000A801C4F600014FF00802FFF779FD45F28A
:1046E0006210C4F2000040F6B001C4F600014FF0C1
:1046F0000802FFF76DFD41F25B63C4F201034FF066
:1047000044021A7044F22233C4F2000344F222320B
:10471000C4F200021278D2B242F00802D2B21A7089
:1047200044F60003C4F200034FF001021A70FFF7D1
:10473000A1FD44F60003C4F200036FF07E021A707C
:1047400040F20403C4F208034FF001021A70FFF7AD
:1047500041FE44F2B030C4F2000044F2A031C4F291
:1047600000014FF00E02FFF733FD07F10807BD46C9
:1047700080BD00BF000000000230800803D000BFF1
:1047800001380046FCD17047EFF3108072B67047D5
:1047900080F31088704700BF80B485B000AF7860A8
:1047A00039607B68FB603B68DAB2FB681A70FB68B3
:1047B00003F101033A684FEA1222D2B21A70FB6881
:1047C00003F102033A684FEA1242D2B21A7007F1BB
:1047D0001407BD4680BC704781F0004102E000BF75
:1047E00083F0004330B54FEA41044FEA430594EAB1
:1047F000050F08BF90EA020F1FBF54EA000C55EAEC
:10480000020C7FEA645C7FEA655C00F0E2804FEABC
:104810005454D4EB5555B8BF6D420CDD2C4480EA9E
:10482000020281EA030382EA000083EA010180EACE
:10483000020281EA0303362D88BF30BD11F0004F1C
:104840004FEA01314FF4801C4CEA113102D0404252
:1048500061EB410113F0004F4FEA03334CEA13338D
:1048600002D0524263EB430394EA050F00F0A780A5
:10487000A4F10104D5F1200E0DDB02FA0EFC22FAA0
:1048800005F2801841F1000103FA0EF2801843FA94
:1048900005F359410EE0A5F120050EF1200E012A85
:1048A00003FA0EFC28BF4CF0020C43FA05F3C018C3
:1048B00051EBE37101F0004507D54FF0000EDCF13C
:1048C000000C7EEB00006EEB0101B1F5801F1BD3E5
:1048D000B1F5001F0CD349085FEA30004FEA3C0CE9
:1048E00004F101044FEA445212F5800F80F09A80DF
:1048F000BCF1004F08BF5FEA500C50F1000041EBE3
:10490000045141EA050130BD5FEA4C0C404141EBE6
:10491000010111F4801FA4F10104E9D191F0000F0D
:1049200004BF01460020B1FA81F308BF2033A3F190
:104930000B03B3F120020CDA0C3208DD02F1140C87
:10494000C2F10C0201FA0CF021FA02F10CE002F1C2
:104950001402D8BFC2F1200C01FA02F120FA0CFCBB
:10496000DCBF41EA0C019040E41AA2BF01EB045104
:10497000294330BD6FEA04041F3C1CDA0C340EDC02
:1049800004F11404C4F1200220FA04F001FA02F345
:1049900040EA030021FA04F345EA030130BDC4F103
:1049A0000C04C4F1200220FA02F001FA04F340EAF8
:1049B0000300294630BD21FA04F0294630BD94F0A9
:1049C000000F83F4801306BF81F480110134013D90
:1049D0004EE77FEA645C18BF7FEA655C29D094EA01
:1049E000050F08BF90EA020F05D054EA000C04BF7F
:1049F0001946104630BD91EA030F1EBF002100206A
:104A000030BD5FEA545C05D14000494128BF41F008
:104A1000004130BD14F580043CBF01F5801130BD6C
:104A200001F0004545F0FE4141F470014FF00000F7
:104A300030BD7FEA645C1ABF194610467FEA655CA8
:104A40001CBF0B46024650EA013406BF52EA03354A
:104A500091EA030F41F4002130BD00BF90F0000F38
:104A600004BF0021704730B54FF4806404F1320474
:104A70004FF000054FF0000150E700BF90F0000F2D
:104A800004BF0021704730B54FF4806404F1320454
:104A900010F0004548BF40424FF000013EE700BF24
:104AA00042004FEAE2014FEA31014FEA02701FBFB4
:104AB00012F07F4393F07F4F81F06051704792F086
:104AC000000F14BF93F07F4F704730B54FF4607400
:104AD00001F0004521F0004120E700BF50EA01024B
:104AE00008BF704730B54FF000050AE050EA0102F8
:104AF00008BF704730B511F0004502D5404261EB68
:104B000041014FF4806404F132045FEA915C3FF4A8
:104B1000DCAE4FF003025FEADC0C18BF03325FEA41
:104B2000DC0C18BF033202EBDC02C2F1200300FAF6
:104B300003FC20FA02F001FA03FE40EA0E0021FA1B
:104B400002F11444C1E600BF4FF0FF3C06E000BF95
:104B50004FF0010C02E000BF4FF0010C4DF804CD06
:104B60004FEA410C7FEA6C5C4FEA430C18BF7FEAC6
:104B70006C5C1BD001B050EA410C0CBF52EA430CF4
:104B800091EA030F02BF90EA020F0020704710F174
:104B9000000F91EA030F58BF994208BF90422CBF03
:104BA000D8176FEAE37040F0010070474FEA410CFC
:104BB0007FEA6C5C02D150EA013C07D14FEA430C1A
:104BC0007FEA6C5CD6D152EA033CD3D05DF8040B8B
:104BD000704700BF8446104662468C4619466346BD
:104BE00000E000BF01B5FFF7B7FF002848BF10F194
:104BF000000F01BD4DF808EDFFF7F4FF0CBF0120D9
:104C000000205DF808FB00BF4DF808EDFFF7EAFF54
:104C100034BF012000205DF808FB00BF4DF808ED0F
:104C2000FFF7E0FF94BF012000205DF808FB00BF04
:104C30004DF808EDFFF7CEFF94BF012000205DF88E
:104C400008FB00BF4DF808EDFFF7C4FF34BF01209B
:104C500000205DF808FB00BF032A2DE9F0070BD800
:104C60003AB1002311F803C000F803C001339342A6
:104C7000F8D1BDE8F007704782180C46034603E000
:104C800014F8011C03F8011C03F003061946A4469E
:104C900001330134002EF3D11CF00304634608BF36
:104CA000C1EB020C68D06542C4F1040A0CEB0507A5
:104CB00033464FEACA0A5CF805604FEAC408551A41
:104CC00008E057F8044F264604FA0AF449EA0404B7
:104CD000CC5004335C18032D26FA08F9A5F104051D
:104CE0000CEB0306EDDC002302E0F15CE154013340
:104CF00019199142F9D3BCE753F8404C41F8404CA4
:104D000053F83C4C41F83C4C53F8384C41F8384C83
:104D100053F8344C41F8344C53F8304C41F8304C93
:104D200053F82C4C41F82C4C53F8284C41F8284CA3
:104D300053F8244C41F8244C53F8204C41F8204CB3
:104D400053F81C4C41F81C4C53F8184C41F8184CC3
:104D500053F8144C41F8144C53F8104C41F8104CD3
:104D600053F80C4C41F80C4C53F8084C41F8084CE3
:104D700053F8044C41F8044C1C460D464033403176
:104D8000BCF13F0FACF1400CB6DC21462B46541B66
:104D90000FE051F8105C43F8105C51F80C5C43F8DC
:104DA0000C5C51F8085C43F8085C51F8045C43F86B
:104DB000045C0F2C0D469C4601F1100103F1100319
:104DC000A4F11004E5DCCCEB0201002303E0EC5875
:104DD0004CF8034004335E19032903EB0C04A1F1E2
:104DE0000401F4DC7FE700BF032AC9B230B407D85E
:104DF00022B10023C15401339342FBD130BC704730
:104E000000EB020C034601E003F8011C03F003046D
:104E10001A460133002CF7D14FF00133C2EB0C04DA
:104E200003FB01F31FE042F8403C42F83C3C42F8EF
:104E3000383C42F8343C42F8303C42F82C3C42F8D2
:104E4000283C42F8243C42F8203C42F81C3C42F802
:104E5000183C42F8143C42F8103C42F80C3C42F832
:104E6000083C42F8043C154640323F2CA4F1400473
:104E7000D9DC2A46C5EB0C0407E042F8103C42F8A6
:104E80000C3C42F8083C42F8043C154610320F2C0A
:104E9000A4F11004F1DC2A46C5EB0C0501E042F850
:104EA000043C14460432032DA5F10405F7DC01E0AF
:104EB00004F8011B6445FBD3A0E700BF08B500F070
:104EC00017F8074800B10068064901B109680022D7
:104ED000FCF7F4F9044B0BB1AFF30080FEE700BF21
:104EE000000000000000000000000000FEE70000DD
:104EF00070B545F2980645F29805C0F20006C0F27A
:104F00000005761BB61006D0002455F82430013475
:104F10009847A642F9D845F2980545F2A006C0F296
:104F20000005C0F20006761B00F0B0F8B61006D0FF
:104F3000002455F8243001349847A642F9D870BDB2
:104F40002B2B2B0041544150310D0000415443485C
:104F500020460D00415457520D0000004154434E6D
:104F60000D0000004C6566743A204920616D2031C7
:104F70007374000052696768743A204920616D209B
:104F8000326E6400506F736974696F6E3A0000008E
:104F90005475726E3A20526564000000576169745E
:104FA000696E672E2E2E00002E5000402D500040BE
:104FB00028500040295000402A5000402B5000400B
:104FC0002C5000400505050505050500402001029F
:104FD00004081000065200400E52004016520040D5
:104FE0001E520040265200402E52004036520040D1
:104FF0007E520040646496969696960003030300E2
:105000000102000000000000646464001414140035
:10501000000A0A0001050500020001000501010067
:1050200000190000303132333435363738394142D7
:10503000434445465C5100405C5100405C51004097
:105040005C5100405C5100405C5100405C510040AC
:105050008B5A0040CB5A00409B5A0040402001022E
:105060000408101001100000405100401000000022
:105070000140001000140140000800400140000AF7
:10508000004C01400002005001402000F8B500BF74
:10509000F8BC08BC9E46704731010000591800005A
:1050A000F8B500BFF8BC08BC9E4670471D01000063
:1050B00000000000C85000000080FF1F2801000011
:0850C00068020000000000007E
:1050C80000000000000000000000000000000000D8
:1050D80000000000000000000000000000000000C8
:1050E80000000000000000000000000000000000B8
:1050F80000000000000000000000000000000000A8
:105108000000000000000000000000000000000097
:105118000000000000000000000000000000000087
:105128000000000000000000000000000000000077
:105138000000000000000000000000000000000067
:105148000000000000000000000000000000000057
:105158000000000000000000000000000000000047
:105168000000000000000000000000000000000037
:105178000000000000000000000000000000000027
:105188000000000000000000000000000000000017
:105198000000000000000000000000000000000007
:1051A80000000000000000000000000000000000F7
:1051B80000000000000000000000000000000000E7
:1051C8000000000085120000020000000800000036
:1051D8000107010000366E01C05D000018000000E4
:0851E8000000E02E7F0700002B
:0400000300001835AC
:00000001FF
